:100000000C9434000C943E000C943E000C943E0082
:100010000C943E000C943E000C943E000C943E0068
:100020000C943E000C943E000C943E000C943E0058
:100030000C943E000C943E000C943E000C943E0048
:100040000C943E000C943E000C943E000C943E0038
:100050000C943E000C943E000C943E000C943E0028
:100060000C943E000C943E0011241FBECFEFD8E04C
:10007000DEBFCDBF0E9440000C9460000C940000D5
:1000800083EE8AB98CE18BB980E284B999B1292FCA
:10009000221F2227221F43B133B191E0532F527008
:1000A00031FF90E081E0511180E0842B8223892B85
:1000B000922B891719F085B185B9E8CF2D9AE6CF33
:0400C000F894FFCFE2
:00000001FF
